:020000040800F2
:1000000000C00120F53D0008FD110008FF110008A7
:100010000112000803120008051200080000000089
:1000200000000000000000000000000007120008AF
:1000300009120008000000000B1200080D12000851
:10004000453E0008453E0008453E0008453E000884
:10005000453E0008453E0008453E0008453E000874
:10006000453E0008453E0008453E0008453E000864
:10007000453E0008453E0008453E0008453E000854
:10008000453E0008453E0008453E0008453E000844
:10009000453E0008453E0008453E0008453E000834
:1000A000453E0008453E0008453E0008453E000824
:1000B000453E0008453E0008453E0008453E000814
:1000C000453E0008453E0008453E0008453E000804
:1000D000453E0008453E0008453E0008453E0008F4
:1000E000453E0008453E0008453E0008453E0008E4
:1000F000453E0008453E0008453E0008453E0008D4
:1001000000000000453E000800000000453E0008D9
:10011000453E0008453E0008453E0008453E0008B3
:10012000453E0008453E0008453E0008453E0008A3
:10013000453E00080000000000000000453E0008A9
:10014000453E0008453E0008000000000000000099
:10015000000000000000000000000000000000009F
:10016000000000000000000000000000453E000804
:10017000453E0008453E0008453E0008453E000853
:10018000453E0008453E0008000000000000000059
:100190000000000000000000453E0008453E000849
:1001A0000000000000000000453E0008453E000839
:1001B000453E0008453E0008453E0008453E000813
:1001C000453E0008453E0008453E0008453E000803
:0801D000453E0008453E000811
:1001E000034613F8012B002AFBD1181A0138704777
:1001F00001F0FF01102A2BDB10F0070F08D010F8D8
:10020000013B013A8B422DD010F0070F42B3F6D1DB
:10021000F0B441EA012141EA014122F007047FF0F4
:1002200000070023F0E80256083C85EA010586EA4B
:10023000010685FA47F5A3FA87F586FA47F6A5FA87
:1002400087F68EB9EED1F0BC01F0FF0102F0070293
:1002500032B110F8013B013A83EA010313B1F8D13E
:100260000020704701387047002D06BF354603381F
:10027000073815F0010F07D1013015F4807F02BF58
:10028000013015F4C03F0130F0BC0138704700BFA9
:1002900081F0004102E000BF83F0004330B54FEA37
:1002A00041044FEA430594EA050F08BF90EA020FA4
:1002B0001FBF54EA000C55EA020C7FEA645C7FEA37
:1002C000655C00F0E2804FEA5454D4EB5555B8BF5A
:1002D0006D420CDD2C4480EA020281EA030382EACB
:1002E000000083EA010180EA020281EA0303362D5D
:1002F00088BF30BD11F0004F4FEA01314FF4801C30
:100300004CEA113102D0404261EB410113F0004F41
:100310004FEA03334CEA133302D0524263EB4303F8
:1003200094EA050F00F0A780A4F10104D5F1200E96
:100330000DDB02FA0EFC22FA05F2801841F10001F1
:1003400003FA0EF2801843FA05F359410EE0A5F1C5
:1003500020050EF1200E012A03FA0EFC28BF4CF0F6
:10036000020C43FA05F3C01851EBE37101F00045AC
:1003700007D54FF0000EDCF1000C7EEB00006EEBB9
:100380000101B1F5801F1BD3B1F5001F0CD3490843
:100390005FEA30004FEA3C0C04F101044FEA44529A
:1003A00012F5800F80F09A80BCF1004F08BF5FEA21
:1003B000500C50F1000041EB045141EA050130BD01
:1003C0005FEA4C0C404141EB0101013C28BFB1F513
:1003D000801FE9D291F0000F04BF01460020B1FA5E
:1003E00081F308BF2033A3F10B03B3F120020CDA31
:1003F0000C3208DD02F1140CC2F10C0201FA0CF00F
:1004000021FA02F10CE002F11402D8BFC2F1200C73
:1004100001FA02F120FA0CFCDCBF41EA0C01904029
:10042000E41AA2BF01EB0451294330BD6FEA040472
:100430001F3C1CDA0C340EDC04F11404C4F120025D
:1004400020FA04F001FA02F340EA030021FA04F36F
:1004500045EA030130BDC4F10C04C4F1200220FAC6
:1004600002F001FA04F340EA0300294630BD21FA04
:1004700004F0294630BD94F0000F83F4801306BFCA
:1004800081F480110134013D4EE77FEA645C18BFBE
:100490007FEA655C29D094EA050F08BF90EA020F55
:1004A00005D054EA000C04BF1946104630BD91EA4D
:1004B000030F1EBF0021002030BD5FEA545C05D150
:1004C0004000494128BF41F0004130BD14F580048F
:1004D0003CBF01F5801130BD01F0004545F0FE4103
:1004E00041F470014FF0000030BD7FEA645C1ABF38
:1004F000194610467FEA655C1CBF0B46024650EA6F
:10050000013406BF52EA033591EA030F41F400219A
:1005100030BD00BF90F0000F04BF0021704730B520
:100520004FF4806404F132044FF000054FF00001F5
:1005300050E700BF90F0000F04BF0021704730B5B6
:100540004FF4806404F1320410F0004548BF40428B
:100550004FF000013EE700BF42004FEAE2014FEAE0
:1005600031014FEA02701FBF12F07F4393F07F4FBB
:1005700081F06051704732F07F4208BF704793F0BE
:100580007F4F04BF41F40021704730B54FF46074D1
:1005900001F0004521F000411CE700BF50EA0102D4
:1005A00008BF704730B54FF000050AE050EA01027D
:1005B00008BF704730B511F0004502D5404261EBED
:1005C00041014FF4806404F132045FEA915C3FF42E
:1005D000D8AE4FF003025FEADC0C18BF03325FEACB
:1005E000DC0C18BF033202EBDC02C2F1200300FA7C
:1005F00003FC20FA02F001FA03FE40EA0E0021FAA1
:1006000002F11444BDE600BF70B54FF0FF0C4CF48E
:10061000E06C1CEA11541DBF1CEA135594EA0C0F40
:1006200095EA0C0F00F0DEF82C4481EA030621EA7B
:100630004C5123EA4C5350EA013518BF52EA0335B6
:1006400041F4801143F4801338D0A0FB02CE4FF068
:100650000005E1FB02E506F00042E0FB03E54FF098
:100660000006E1FB03569CF0000F18BF4EF0010E90
:10067000A4F1FF04B6F5007F64F5407404D25FEA8C
:100680004E0E6D4146EB060642EAC62141EA55513F
:100690004FEAC52040EA5E504FEACE2EB4F1FD0C81
:1006A00088BFBCF5E06F1ED8BEF1004F08BF5FEAFF
:1006B000500E50F1000041EB045170BD06F00046B1
:1006C00046EA010140EA020081EA0301B4EB5C045E
:1006D000C2BFD4EB0C0541EA045170BD41F4801156
:1006E0004FF0000E013C00F3AB8014F1360FDEBF7B
:1006F000002001F0004170BDC4F10004203C35DA57
:100700000C341BDC04F11404C4F1200500FA05F3D9
:1007100020FA04F001FA05F240EA020001F000427A
:1007200021F0004110EBD37021FA04F642EB0601F0
:100730005EEA430E08BF20EAD37070BDC4F10C041A
:10074000C4F1200500FA04F320FA05F001FA04F2DE
:1007500040EA020001F0004110EBD37041F10001CA
:100760005EEA430E08BF20EAD37070BDC4F12005D5
:1007700000FA05F24EEA020E20FA04F301FA05F23D
:1007800043EA020321FA04F001F0004121FA04F2E5
:1007900020EA020000EBD3705EEA430E08BF20EAB5
:1007A000D37070BD94F0000F0FD101F000464000EF
:1007B00041EB010111F4801F08BF013CF7D041EA71
:1007C000060195F0000F18BF704703F00046520075
:1007D00043EB030313F4801F08BF013DF7D043EA46
:1007E0000603704794EA0C0F0CEA135518BF95EAFC
:1007F0000C0F0CD050EA410618BF52EA4306D1D183
:1008000081EA030101F000414FF0000070BD50EAA1
:10081000410606BF1046194652EA430619D094EA2B
:100820000C0F02D150EA013613D195EA0C0F05D115
:1008300052EA03361CBF104619460AD181EA030169
:1008400001F0004141F0FE4141F470014FF0000021
:1008500070BD41F0FE4141F4780170BD70B54FF0BC
:10086000FF0C4CF4E06C1CEA11541DBF1CEA13553C
:1008700094EA0C0F95EA0C0F00F0A7F8A4EB05041E
:1008800081EA030E52EA03354FEA013100F0888015
:100890004FEA03334FF0805545EA131343EA1263DE
:1008A0004FEA022245EA111545EA10654FEA002693
:1008B0000EF000419D4208BF964244F1FD0404F54C
:1008C000407402D25B084FEA3202B61A65EB0305A8
:1008D0005B084FEA32024FF480104FF4002CB6EB65
:1008E000020E75EB030E22BFB61A754640EA0C00E5
:1008F0005B084FEA3202B6EB020E75EB030E22BF25
:10090000B61A754640EA5C005B084FEA3202B6EB65
:10091000020E75EB030E22BFB61A754640EA9C0024
:100920005B084FEA3202B6EB020E75EB030E22BFF4
:10093000B61A754640EADC0055EA060E18D04FEAB2
:10094000051545EA16754FEA06164FEAC30343EA52
:1009500052734FEAC2025FEA1C1CC0D111F4801F1F
:100960000BD141EA00014FF000004FF0004CB6E718
:1009700011F4801F04BF01430020B4F1FD0C88BFB7
:10098000BCF5E06F3FF6AFAEB5EB030C04BFB6EBC2
:10099000020C5FEA500C50F1000041EB045170BDB5
:1009A0000EF0004E4EEA113114EB5C04C2BFD4EBE2
:1009B0000C0541EA045170BD41F480114FF0000E66
:1009C000013C90E645EA060E8DE60CEA135594EAE2
:1009D0000C0F08BF95EA0C0F3FF43BAF94EA0C0FE5
:1009E0000AD150EA01347FF434AF95EA0C0F7FF45A
:1009F00025AF104619462CE795EA0C0F06D152EAAE
:100A000003353FF4FDAE1046194622E750EA410691
:100A100018BF52EA43067FF4C5AE50EA41047FF4A2
:100A20000DAF52EA43057FF4EBAE12E74FF0FF3C07
:100A300006E000BF4FF0010C02E000BF4FF0010CD8
:100A40004DF804CD4FEA410C7FEA6C5C4FEA430C51
:100A500018BF7FEA6C5C1BD001B050EA410C0CBFA0
:100A600052EA430C91EA030F02BF90EA020F002002
:100A7000704710F1000F91EA030F58BF994208BF69
:100A800090422CBFD8176FEAE37040F00100704726
:100A90004FEA410C7FEA6C5C02D150EA013C07D17D
:100AA0004FEA430C7FEA6C5CD6D152EA033CD3D0C8
:100AB0005DF8040B704700BF8446104662468C46C2
:100AC0001946634600E000BF01B5FFF7B7FF0028F5
:100AD00048BF10F1000F01BD4DF808EDFFF7F4FF1E
:100AE0000CBF012000205DF808FB00BF4DF808EDA9
:100AF000FFF7EAFF34BF012000205DF808FB00BFCC
:100B00004DF808EDFFF7E0FF94BF012000205DF8ED
:100B100008FB00BF4DF808EDFFF7CEFF94BF0120A2
:100B200000205DF808FB00BF4DF808EDFFF7C4FF9B
:100B300034BF012000205DF808FB00BF4FEA410CE4
:100B40007FEA6C5C02D150EA013C0AD14FEA430CC7
:100B50007FEA6C5C02D152EA033C02D14FF0000004
:100B600070474FF0010070474FEA410212F5001242
:100B700015D211D56FF47873B3EB625212D94FEAE4
:100B8000C12343F0004343EA505311F0004F23FACE
:100B900002F018BF404270474FF00000704750EA23
:100BA000013005D111F0004008BF6FF000407047E0
:100BB0004FF00000704700BF53B94AB9002908BF81
:100BC00000281CBF4FF0FF314FF0FF3000F074B928
:100BD000ADF1080C6DE904CE00F006F8DDF804E094
:100BE000DDE9022304B070472DE9F047089D044673
:100BF0008E46002B4DD18A42944669D9B2FA82F2D0
:100C000052B101FA02F3C2F1200120FA01F10CFA0B
:100C100002FC41EA030E94404FEA1C48210CBEFB43
:100C2000F8F61FFA8CF708FB16E341EA034306FBCC
:100C300007F199420AD91CEB030306F1FF3080F05B
:100C40001F81994240F21C81023E63445B1AA4B2A8
:100C5000B3FBF8F008FB103344EA034400FB07F74A
:100C6000A7420AD91CEB040400F1FF3380F00A818B
:100C7000A74240F207816444023840EA0640E41B80
:100C800000261DB1D4400023C5E900433146BDE82C
:100C9000F0878B4209D9002D00F0EF800026C5E9CE
:100CA000000130463146BDE8F087B3FA83F6002EE6
:100CB0004AD18B4202D3824200F2F980841A61EB5E
:100CC000030301209E46002DE0D0C5E9004EDDE77C
:100CD00002B9FFDEB2FA82F2002A40F09280A1EB64
:100CE0000C014FEA1C471FFA8CFE0126200CB1FBB9
:100CF000F7F307FB131140EA01410EFB03F08842B2
:100D000008D91CEB010103F1FF3802D2884200F23E
:100D1000CB804346091AA4B2B1FBF7F007FB1011D0
:100D200044EA01440EFB00FEA64508D91CEB04046E
:100D300000F1FF3102D2A64500F2BB800846A4EBC9
:100D40000E0440EA03409CE7C6F12007B34022FAB4
:100D500007FC4CEA030C20FA07F401FA06F31C43E3
:100D6000F9404FEA1C4900FA06F3B1FBF9F8200CF0
:100D70001FFA8CFE09FB181140EA014108FB0EF036
:100D8000884202FA06F20BD91CEB010108F1FF3A86
:100D900080F08880884240F28580A8F10208614492
:100DA000091AA4B2B1FBF9F009FB101144EA0141A0
:100DB00000FB0EFE8E4508D91CEB010100F1FF344B
:100DC0006CD28E456AD90238614440EA0840A0FBE3
:100DD0000294A1EB0E01A142C846A64656D353D0B9
:100DE0005DB1B3EB080261EB0E0101FA07F722FADD
:100DF00006F3F1401F43C5E9007100263146BDE806
:100E0000F087C2F12003D8400CFA02FC21FA03F368
:100E1000914001434FEA1C471FFA8CFEB3FBF7F0E9
:100E200007FB10360B0C43EA064300FB0EF69E420E
:100E300004FA02F408D91CEB030300F1FF382FD2A7
:100E40009E422DD9023863449B1B89B2B3FBF7F64F
:100E500007FB163341EA034106FB0EF38B4208D928
:100E60001CEB010106F1FF3816D28B4214D9023E69
:100E70006144C91A46EA004638E72E46284605E787
:100E80000646E3E61846F8E64B45A9D2B9EB020858
:100E900064EB0C0E0138A3E74646EAE7204694E7E8
:100EA0004046D1E7D0467BE7023B614432E730461B
:100EB00009E76444023842E7704700BF72B6FEE7B4
:100EC00010B594B03822002106A802F0E7FF0024F4
:100ED000019402940394049405944FF4007000F07C
:100EE000B5F9022306934FF48073099340230A93C4
:100EF0000D9406A800F0C2FA68B90F2301930123EC
:100F00000293002103910491059101A800F06CFD6A
:100F100018B914B010BDFFF7D1FFFFF7CFFF0000E5
:100F20002DE9F047C4B000F047FAFFF7C9FFA54C20
:100F3000E36C43F00103E364E36C03F00103039308
:100F4000039B00263F9640964196429643964FF06B
:100F50002009CDF8FC90012740973FA94FF0904021
:100F600001F016F84FF480633F9340964197429604
:100F70003FA94FF0904001F00BF8E36C43F40053AD
:100F8000E364E36C03F400530493049B3F9703234F
:100F9000409341963FA94FF0904000F0F9FF8A4DF1
:100FA0004FF0A0432B604FF400336B60AE60EE60F7
:100FB0006E614FF00408C5F818806E772F6285F8CF
:100FC0002460EE622E6385F84060284601F062FDE1
:100FD0004A46314637A802F061FF7C4B379306231F
:100FE0003893CDF8E48037A9284601F02FFF7F2100
:100FF000284602F001FB5022314623A802F04EFFA2
:10100000CDF88C904FF40063299323A800F012FED2
:10101000E36D3B43E365E36D3B400593059B4FF078
:101020000C0ACDF8FCA04FF00209CDF800914196D2
:101030004296CDF80CA13FA94FF0904000F0A8FFD8
:10104000634D644B2B604FF416536B60AE60EE60E3
:101050002E61C5F814A0AE61284602F097FEE36C3D
:1010600043EA0803E364E36C03EA08030693069B80
:10107000A36D43EA0903A365A36D03EA090307937C
:10108000079B4FF0800ACDF8FCA0CDF80091419667
:101090004296CDF80C913FA94F4800F079FF4F4C94
:1010A0004F4B23600F236360A66044F61F63E36029
:1010B00026616661C4F818A0204601F009FB1C9661
:1010C0001D961E961F9620962196229660231C93AD
:1010D00040F2DC59CDF8749042461CA9204601F03C
:1010E00077FB4146204601F01FFC4FF4FA739C2227
:1010F0003C49284602F074FD4D4637E020214FF070
:10110000904001F03CF800F073F9831BB3F57A7F4F
:1011100016D3C7EB471307EB83031D44B5F5FA6FEE
:1011200006DAB5F57A7F07DC01274FF47A7503E01C
:101130004FF0FF374FF4FA65284B1B689D63064656
:101140004FF4FA7000F05AF92FE0274A0192009408
:10115000264A502108A803F013FB642382B208A991
:101160001B4802F03DFDC82000F048F9164C20460F
:1011700002F070F90A21204601F0C6FD204601F078
:1011800061FE40F6E44404FB00F0194CA4FB00347B
:10119000001B04EB5004E40A4FF480614FF09040D0
:1011A00000F0E6FF80460028A8D0124BA3FB0423E2
:1011B0009B094FF47A7202FB1344B8F1000FC4D0BC
:1011C0000D4AC3E700100240DC0100200200300499
:1011D00094020020008000400008004848020020DF
:1011E00000040040C46C0008B86C0008646D00087E
:1011F00001011000D34D6210B06C0008FEE7FEE75D
:10120000FEE7FEE7FEE770477047704708B500F05D
:10121000E3F808BD00B583B00B4B1A6E42F0010233
:101220001A661A6E02F001020092009A9A6D42F05C
:1012300080529A659B6D03F080530193019B00F0EF
:101240008BF803B05DF804FB00100240002836D193
:101250003E4B1B6803F4C063B3F5806F08D03B4A74
:10126000D2F8803023F48073C2F8803000207047B9
:10127000364AD2F8803023F48073C2F88030136885
:1012800023F4C06343F400731360314B1B683222B4
:1012900002FB03F32F4AA2FB03239B0C013300E064
:1012A000013B2A4A526912F4806F01D0002BF7D11A
:1012B000264B5B6913F4806F44D100207047B0F572
:1012C000007F08D0214A136823F4C06343F480638D
:1012D0001360002070471D4B1B6803F4C063B3F517
:1012E000806F08D0194AD2F8803043F48073C2F876
:1012F000803000207047154AD2F8803043F4807364
:10130000C2F88030136823F4C06343F400731360A1
:101310000F4B1B68322202FB03F30E4AA2FB03238E
:101320009B0C013300E0013B084A526912F4806FC4
:1013300001D0002BF7D1054B5B6913F4806F03D10B
:101340000020704703207047032070470070004062
:101350000800002083DE1B43024A936843F4804365
:101360009360704700700040104B1B680BB9012060
:10137000704710B504464FF47A70B0FBF3F30C4A93
:101380001068B0FBF3F000F04DFF68B90F2C01D9E5
:1013900001200AE0002221464FF0FF3000F00AFF52
:1013A000044B1C60002000E0012010BD0000002064
:1013B000080000200400002010B5032000F0E8FE23
:1013C0000F20FFF7D1FF10B10124204610BD0446C5
:1013D000FFF720FFF9E70000034A13680349096893
:1013E0000B441360704700BF28030020000000205A
:1013F000014B1868704700BF2803002038B5044629
:10140000FFF7F6FF0546B4F1FF3F02D0044B1B681F
:101410001C44FFF7EDFF401BA042FAD338BD00BFCC
:1014200000000020124BDA6802F00302D868C0F313
:101430000310431C032A11D00E48B0FBF3F00C4BF1
:10144000DB68C3F3062303FB00F0094BDB68C3F33F
:10145000416301335B00B0FBF3F070470648B0FB1B
:10146000F3F0034BDB68C3F3062303FB00F0ECE768
:10147000001002400024F40000127A00002800F05E
:101480004F8270B582B00446036813F0010F37D065
:10149000A44A936803F00C03D26802F003020C2BF9
:1014A00023D0082B23D06368B3F5803F4ED0B3F52B
:1014B000A02F51D09B4B1A6822F480321A601A6810
:1014C00022F480221A606368002B52D0FFF790FF4D
:1014D0000546944B1B6813F4003F11D1FFF788FFBA
:1014E000401B6428F5D9032023E2032AD9D18D4B70
:1014F0001B6813F4003F03D06368002B00F01282D6
:10150000236813F0020F5DD0864A936803F00C0342
:10151000D26802F003020C2B3AD0042B3AD0E368D5
:10152000002B75D07F4A136843F480731360FFF774
:101530005FFF05467B4B1B6813F4806F5FD1FFF79D
:1015400057FF401B0228F5D90320F2E1754A1368C2
:1015500043F480331360B6E703F18043A3F53C33D3
:101560001A6842F480221A601A6842F480321A60C3
:10157000A9E7FFF73DFF05466A4B1B6813F4003FE0
:10158000BED0FFF735FF401B6428F5D90320D0E11A
:10159000022AC2D1634B1B6813F4806F03D0E36847
:1015A000002B00F0C1815F4A536823F0FE4321699C
:1015B00043EA016353605C4B1868FFF7D5FE0028CF
:1015C00040F0B481236813F0080F4CD063699BB3DB
:1015D000544AD2F8943043F00103C2F89430FFF734
:1015E00007FF05464F4BD3F8943013F0020F3AD162
:1015F000FFF7FEFE401B0228F4D9032099E1494A77
:10160000536823F0FE43216943EA01635360D9E73D
:10161000444A136823F480731360FFF7E9FE05461C
:10162000404B1B6813F4806FCCD0FFF7E1FE401BEA
:101630000228F5D903207CE13A4AD2F8943023F00D
:101640000103C2F89430FFF7D3FE0546354BD3F8BB
:10165000943013F0020F06D0FFF7CAFE401B022899
:10166000F4D9032065E1236813F0040F00F08180B2
:101670002C4B9B6D13F0805F36D12A4B9A6D42F054
:1016800080529A659B6D03F080530193019B012565
:10169000264B1B6813F4807F28D0A368012B39D018
:1016A000052B45D01F4BD3F8902022F00102C3F840
:1016B0009020D3F8902022F00402C3F89020A36871
:1016C000002B43D0FFF794FE0646164BD3F890301C
:1016D00013F0020F4CD1FFF78BFE801B41F28833D1
:1016E0009842F2D9032024E10025D1E70F4A13687C
:1016F00043F480731360FFF77BFE06460B4B1B68B9
:1017000013F4807FC9D1FFF773FE801B0228F5D93F
:1017100003200EE1034AD2F8903043F00103C2F8EF
:101720009030CCE700100240040000200070004020
:10173000884BD3F8902042F00402C3F89020D3F8ED
:10174000902042F00102C3F89020B8E7FFF750FE66
:101750000646804BD3F8903013F0020F08D0FFF705
:1017600047FE801B41F288339842F2D90320E0E023
:10177000E5B9236813F0200F35D0A369E3B1754AAA
:10178000D2F8983043F00103C2F89830FFF730FEEA
:101790000546704BD3F8983013F0020F23D1FFF7B2
:1017A00027FE401B0228F4D90320C2E0694A936D4A
:1017B00023F080539365DCE7664AD2F8983023F033
:1017C0000103C2F89830FFF713FE0546614BD3F8CA
:1017D000983013F0020F06D0FFF70AFE401B0228D4
:1017E000F4D90320A5E0E369002B00F0A180594A59
:1017F000926802F00C020C2A64D0022B13D0554AD6
:10180000136823F080731360FFF7F2FD0446514B19
:101810001B6813F0007F4ED0FFF7EAFD001B022883
:10182000F5D9032085E04B4A136823F080731360D9
:10183000FFF7DEFD0546474B1B6813F0007F06D01F
:10184000FFF7D6FD401B0228F5D9032071E0414A7D
:10185000D36841491940236A606A013843EA00139A
:10186000A06A43EA0023206B4008013843EA405352
:10187000606B4008013843EA4063E06A43EAC063B2
:101880000B43D360136843F080731360D36843F055
:101890008073D360FFF7ACFD04462E4B1B6813F03A
:1018A000007F06D1FFF7A4FD001B0228F5D9032015
:1018B0003FE000203DE0274AD168284B0B40D36031
:1018C000002036E0012B36D0224BDB6803F0030109
:1018D000226A914231D103F0F002616A0139B2EB20
:1018E000011F2CD103F4FE42A16AB2EB012F28D1D3
:1018F00003F07842E16AB2EBC16F24D103F4C00176
:10190000226B5208013AB1EB425F1ED103F0C06373
:10191000626B5208013AB3EB426F18D1002008E025
:1019200001207047012004E0012002E0012000E0D6
:10193000002002B070BD0120FBE70120F9E7012083
:10194000F7E70120F5E70120F3E70120F1E70120A7
:10195000EFE700BF001002400C809F01FCFFEEFE8D
:101960001E4B9B6803F00C03042B33D01B4B9B686E
:1019700003F00C03082B2FD0184B9B6803F00C03CB
:101980000C2B01D000207047144BDA6802F00302E0
:10199000D868C0F30310431C032A11D01048B0FBD1
:1019A000F3F00E4BDB68C3F3062303FB00F00B4B95
:1019B000DB68C3F3416301335B00B0FBF3F07047B6
:1019C0000848B0FBF3F0054BDB68C3F3062303FBC9
:1019D00000F0ECE7024870470248704700100240F0
:1019E0000024F40000127A00002800F0E680F8B528
:1019F0000C460546744B1B6803F00F038B420BD259
:101A0000714A136823F00F030B431360136803F04C
:101A10000F038B4240F0D3802E6816F001065FD092
:101A20006B68032B2FD0022B4DD0684B1B6813F42F
:101A3000806F00F0C680FFF793FF654B98424DD949
:101A4000624A936823F0F00343F08003936080269A
:101A50005E4A936823F0030369680B439360FFF7C2
:101A6000C7FC0746594B9B6803F00C036A68B3EB4D
:101A7000820F35D0FFF7BCFCC01B41F2883398427F
:101A8000F0D9032078E0514B1B6813F0007F01D19F
:101A9000012071E0FFF7C6FC4D4B98421AD94B4B21
:101AA0009B6813F0F00F05D02E6816F00206CFD019
:101AB000AB688BB9454A936823F0F00343F0800389
:101AC00093608026C4E7414B1B6813F4003FB2D1FA
:101AD000012051E00026BBE70026B9E70026B7E762
:101AE0002B6813F0020F48D013F0040F04D0374ACC
:101AF000936843F4E06393602B6813F0080F06D0FB
:101B0000324A936823F47C5343F4E06393602F4A92
:101B1000936823F0F003A9680B4393602A4B1B687A
:101B200003F00F03A34230D82B6813F0040F06D044
:101B3000264A936823F4E063E9680B4393602B68BB
:101B400013F0080F07D0214A936823F460532969E2
:101B500043EAC1039360FFF703FF1C4B9B68C3F389
:101B600003131C4AD35C03F01F03D8401A4B1860C0
:101B70001A4B1868FFF7F8FBF8BD802ECED1134A38
:101B8000936823F0F0039360C8E70F4A136823F0CB
:101B90000F0323431360FFF72BFC06460A4B1B6819
:101BA00003F00F03A342BFD0FFF722FC801B41F2DA
:101BB00088339842F2D90320DEE7012070470120E4
:101BC000DAE70120D8E700BF002002400010024001
:101BD00000B4C404846D0008080000200400002044
:101BE000014B1868704700BF0800002008B5FFF7D8
:101BF000F7FF054B9B68C3F30223044AD35C03F051
:101C00001F03D84008BD00BF00100240946D0008BB
:101C100008B5FFF7E5FF054B9B68C3F3C223044AF1
:101C2000D35C03F01F03D84008BD00BF0010024082
:101C3000946D0008F0B583B00446036813F4002FD8
:101C40006ED0354B9B6D13F0805F1ED1324B9A6D79
:101C500042F080529A659B6D03F080530193019B83
:101C600001262E4A136843F480731360FFF7C0FB0C
:101C700005462A4B1B6813F4807F08D1FFF7B8FB99
:101C8000401B0228F5D9032502E00026E9E70025DC
:101C900045BB214BD3F8903013F4407315D0E26C60
:101CA0009A4212D01C4AD2F8903023F44073D2F8F2
:101CB000901041F48031C2F89010D2F8901021F4C5
:101CC0008031C2F89010C2F8903013F0010F10D19B
:101CD00045B9114AD2F8903023F44073E16C0B43BC
:101CE000C2F89030EEB10C4A936D23F080539365A7
:101CF00017E0FFF77DFB0746074BD3F8903013F052
:101D0000020FE5D1FFF774FBC01B41F28833984204
:101D1000F2D90325DCE700BF00100240007000404C
:101D20000025236813F0010F08D0984AD2F88830B4
:101D300023F0030361680B43C2F88830236813F073
:101D4000020F08D0914AD2F8883023F00C03A16822
:101D50000B43C2F88830236813F0040F08D08B4A75
:101D6000D2F8883023F03003E1680B43C2F88830A2
:101D7000236813F0080F08D0844AD2F8883023F083
:101D8000C00321690B43C2F88830236813F0100F99
:101D900008D07E4AD2F8883023F4407361690B433F
:101DA000C2F88830236813F0200F08D0774AD2F8A1
:101DB000883023F44063A1690B43C2F8883023685C
:101DC00013F0400F08D0714AD2F8883023F4405302
:101DD000E1690B43C2F88830236813F0800F08D004
:101DE0006A4AD2F8883023F44043216A0B43C2F890
:101DF0008830236813F4807F08D0644AD2F8883092
:101E000023F44033616A0B43C2F88830236813F42B
:101E1000007F08D05D4AD2F8883023F44023A16ABD
:101E20000B43C2F88830236813F4806F0CD0574AF4
:101E3000D2F8883023F44013E16A0B43C2F88830AB
:101E4000E36AB3F5801F79D0236813F4006F0CD0D8
:101E50004E4AD2F8883023F44003216B0B43C2F87A
:101E60008830236BB3F5800F6DD0236813F4805F47
:101E70000CD0464AD2F8883023F04073616B0B4394
:101E8000C2F88830636BB3F1807F61D0236813F4AC
:101E9000005F0CD03D4AD2F8883023F04063A16B3C
:101EA0000B43C2F88830A36BB3F1006F55D02368A1
:101EB00013F4804F0CD0354AD2F8883023F04063B9
:101EC000E16B0B43C2F88830E36BB3F1006F49D08C
:101ED000236813F4004F0CD02C4AD2F8883023F03A
:101EE0004053216C0B43C2F88830236CB3F1805F00
:101EF0003DD0236813F4803F0CD0244AD2F88830B8
:101F000023F04043616C0B43C2F88830636CB3F13B
:101F1000804F31D0236813F4802F0CD01B4AD2F8A5
:101F20009C3023F44013A16C0B43C2F89C30A36C8B
:101F3000B3F5001F25D0284603B0F0BDD36843F4A5
:101F40008013D36080E7D36843F48013D3608CE7B9
:101F5000D36843F48013D36098E7D36843F48013C5
:101F6000D360A4E7D36843F48013D360B0E7D368A9
:101F700043F48033D360BCE7D36843F48033D36049
:101F8000C8E7D36843F48013D360D4E7001002405D
:101F9000F0B583B0002366E085685E000324B4409A
:101FA00025EA0405CC68B4402C438460446824EAE4
:101FB0000C0C4C68C4F300149C4044EA0C044460CC
:101FC00062E08C68012C64D172E0DD08083550F8BD
:101FD000256003F007044FEA840C0F2404FA0CF484
:101FE00026EA040E0C6904FA0CF444EA0E0440F8E4
:101FF000254062E0052400E0002404FA0EF42C439E
:102000000CF1020C564D45F82C40564CA568D443B3
:1020100025EA02064F6817F4801F01D042EA050640
:10202000504DAE60ED6804EA05064F6817F4001FD6
:1020300001D042EA05064B4DEE606D6804EA0506E4
:102040004F6817F4003F01D042EA0506454D6E6027
:102050002D682C404E6816F4803F01D042EA0504FA
:10206000404A146001330A6832FA03F476D04FF024
:10207000010C0CFA03FC1CEA0202F3D04C6804F0D9
:102080000304013C012C87D94C6804F00304032CA1
:1020900097D0C4684FEA430E4FF0030C0CFA0EFCC5
:1020A00024EA0C0C8C6804FA0EF444EA0C04C460B4
:1020B0004C6804F00304022C87D004684FEA430EF6
:1020C0004FF0030C0CFA0EFC24EA0C0C4C6804F0E4
:1020D000030404FA0EF444EA0C0404604C6814F49B
:1020E000403FBFD0204C256E45F001052566246E8B
:1020F00004F001040194019C4FEA930C0CF10205D9
:10210000174C54F8255003F003044FEA840E0F24B3
:1021100004FA0EF425EA0405B0F1904F3FF46CAFD9
:10212000124CA04212D004F58064A04210D004F5F5
:102130008064A0420ED004F58064A0420CD004F567
:102140008064A0423FF456AF062456E7012454E7CA
:10215000022452E7032450E704244EE703B0F0BD05
:10216000000001400004014000100240000400484B
:102170000369194201D0012070470020704743696C
:1021800001EA030221EA030141EA02418161704749
:10219000074AD36823F4E0631B041B0C000200F41D
:1021A000E060034343F0BF6343F40033D360704700
:1021B00000ED00E000B5194BDB68C3F30223C3F167
:1021C000070CBCF1040F28BF4FF0040C03F1040E00
:1021D000BEF1060F18D9033B4FF0FF3E0EFA0CFC80
:1021E00021EA0C0199400EFA03F322EA0303194392
:1021F00000280BDB0901C9B200F1604000F5614025
:1022000080F800135DF804FB0023E5E700F00F0001
:102210000901C9B2024B1954F4E700BF00ED00E018
:1022200014ED00E00138B0F1807F0BD24FF0E023D5
:102230005861054AF02182F8231000209861072296
:102240001A6170470120704700ED00E0034AD2F8A0
:10225000883043F47003C2F88830704700ED00E026
:1022600010B503460C4A0D490D48006840B10C48B2
:1022700000680344521A934206D8094A136010BDFD
:102280000748084C0460F2E701F0DEFD0C23036010
:102290004FF0FF30F3E700BF00C001200004000052
:1022A0002C030020400300200120704708B501F0F6
:1022B000CBFD162303604FF0FF3008BD08B54FF08B
:1022C000FF31FFF7F3FFFEE770B50C461646002519
:1022D00006E0AFF30080214601F8010B01350C4602
:1022E000B542F6DB304670BD70B50C46164600258B
:1022F00004E014F8010BAFF300800135B542F8DBC0
:10230000304670BD4FF0FF3070474FF400534B60C4
:1023100000207047012070470020704730B4036AE6
:10232000026A22F0010202624568826922F4803268
:1023300022F073020C68224323F002038C682343CB
:10234000224CA04213D004F50064A0420FD004F543
:102350004064A0420BD004F58064A04207D004F58D
:102360008064A04203D004F50064A04207D1046A4F
:1023700024F00404046223F00803CC682343134CC4
:10238000A04213D004F50064A0420FD004F54064CD
:10239000A0420BD004F58064A04207D004F580640D
:1023A000A04203D004F50064A04207D125F4407C8C
:1023B0004C6944EA0C0C8D6945EA0C054560826164
:1023C0004A684263036230BC704700BF002C014082
:1023D00030B4036A026A22F4807202624468C269FD
:1023E00022F4803222F073020D682A4323F4007332
:1023F0008D6843EA05231D4DA84207D005F5006509
:10240000A84203D005F5E055A84208D1056A25F495
:102410008065056223F40063CD6843EA0523134D0C
:10242000A84213D005F50065A8420FD005F5406518
:10243000A8420BD005F58065A84207D005F5806558
:10244000A84203D005F50065A84207D124F4405402
:102450004D6944EA05148D6944EA05144460C2617B
:102460004A68C263036230BC704700BF002C014061
:1024700030B4036A026A22F4805202624468C2697C
:1024800022F0807222F4E6420D6842EA052223F42B
:1024900000538D6843EA05331C4DA84207D005F56B
:1024A0000065A84203D005F5E055A84208D1056AA9
:1024B00025F48045056223F40043CD6843EA0533E3
:1024C000124DA84213D005F50065A8420FD005F5BE
:1024D0004065A8420BD005F58065A84207D005F5F8
:1024E0008065A84203D005F50065A84207D124F411
:1024F00040444D6944EA85148D6944EA851444607A
:10250000C2614A680264036230BC7047002C01401B
:1025100030B4036A026A22F4803202624468026DB7
:1025200022F4803222F070020D682A4323F4003333
:102530008D6843EA0543114DA84213D005F50065A7
:10254000A8420FD005F54065A8420BD005F580657F
:10255000A84207D005F58065A84203D005F50065BF
:10256000A84204D124F480344D6944EA052444602F
:1025700002654A688264036230BC7047002C0140E7
:1025800030B4036A026A22F4801202624468026D67
:1025900022F0807222F4E0420D6842EA052223F420
:1025A00000138D6843EA0553114DA84213D005F579
:1025B0000065A8420FD005F54065A8420BD005F58F
:1025C0008065A84207D005F58065A84203D005F5CF
:1025D0000065A84204D124F480244D6944EA85248E
:1025E000446002654A68C264036230BC704700BF41
:1025F000002C0140704700000368344A904212D01A
:10260000B0F1804F0FD0A2F5943290420BD002F57A
:102610008062904207D002F59632904203D002F5D4
:10262000E052904203D123F070034A681343274AD3
:1026300090421ED0B0F1804F1BD0A2F59432904250
:1026400017D002F58062904213D002F59632904284
:102650000FD002F5406290420BD002F580629042AA
:1026600007D002F58062904203D002F500629042EA
:1026700003D123F44073CA68134323F080034A69EB
:1026800013438A68C2620A688262104A904213D079
:1026900002F5006290420FD002F5406290420BD0EA
:1026A00002F58062904207D002F58062904203D02A
:1026B00002F50062904201D10A690263026842F0A9
:1026C000040202600122426103607047002C014055
:1026D00060B310B5044690F83D3013B3022384F87C
:1026E0003D30214651F8040BFFF786FF012384F8A3
:1026F000483084F83E3084F83F3084F8403084F825
:10270000413084F8423084F8433084F8443084F80F
:10271000453084F8463084F8473084F83D30002056
:1027200010BD80F83C30FFF765FFD7E70120704708
:1027300030B4036A026A22F01002026244688269BD
:1027400022F0807222F4E6420D6842EA052223F06C
:1027500020038D6843EA05131C4DA84207D005F5F8
:102760000065A84203D005F5E055A84208D1056AE6
:1027700025F04005056223F08003CD6843EA051388
:10278000124DA84213D005F50065A8420FD005F5FB
:102790004065A8420BD005F58065A84207D005F535
:1027A0008065A84203D005F50065A84207D124F44E
:1027B00040644D6944EA85048D6944EA85044460B7
:1027C00082614A688263036230BC7047002C01401A
:1027D00038B590F83C30012B00F0958004460D464A
:1027E000012380F83C30142A00F28880DFE802F0F0
:1027F0000B8686861F8686863486868648868686EB
:102800005D86868671000068FFF788FD22689369FF
:1028100043F0080393612268936923F004039361F2
:102820002268936929690B439361002067E000687F
:10283000FFF77EFF2268936943F400639361226887
:10284000936923F48063936122689369296943EA59
:1028500001239361002052E00068FFF7B9FD226870
:10286000D36943F00803D3612268D36923F00403DA
:10287000D3612268D36929690B43D36100203EE00C
:102880000068FFF7F5FD2268D36943F40063D36164
:102890002268D36923F48063D3612268D3692969EC
:1028A00043EA0123D361002029E00068FFF730FEEE
:1028B0002268136D43F0080313652268136D23F03B
:1028C000040313652268136D29690B431365002007
:1028D00015E00068FFF754FE2268136D43F40063AF
:1028E00013652268136D23F4806313652268136DEA
:1028F000296943EA01231365002000E00120002339
:1029000084F83C3038BD0220FCE701F01F010123B0
:1029100003FA01FC036A23EA0C030362036A02FA66
:1029200001F10B430362704710B5044608460029C5
:102930004FD194F83E30DBB2013B18BF0123002B8E
:1029400040F09C8000286FD1022384F83E300122A1
:1029500001462068FFF7D9FF23684B4A934213D002
:1029600002F5006293420FD002F5406293420BD011
:1029700002F58062934207D002F58062934203D051
:1029800002F50062934203D15A6C42F400425A6449
:1029900023683D4A934263D0B3F1804F60D0A2F5E3
:1029A000943293425CD002F58062934258D002F593
:1029B0009632934254D002F54062934250D002F5D1
:1029C000805293424CD01A6842F001021A600020F3
:1029D00055E004290CD0082911D00C2916D0102953
:1029E0001BD094F84330DBB2013B18BF0123A6E7AC
:1029F00094F83F30DBB2013B18BF01239FE794F806
:102A00004030DBB2013B18BF012398E794F8413016
:102A1000DBB2013B18BF012391E794F84230DBB2EF
:102A2000013B18BF01238AE7042809D008280BD0EE
:102A30000C280DD010280FD0022384F8433086E7ED
:102A4000022384F83F3082E7022384F840307EE797
:102A5000022384F841307AE7022384F8423076E793
:102A600099680A4A0A40062A0AD0B2F5803F09D07E
:102A70001A6842F001021A60002000E0012010BD37
:102A80000020FCE70020FAE7002C014007000100CD
:102A90007047000030B583B000230193002800F098
:102AA00023810446C36D13B323689A6812F0005F54
:102AB00005D09A6822F0204222F03F029A602268F4
:102AC000936813F0805F1FD1936823F0104323F0C5
:102AD0003F0343F080539360844B1B689B09844AF7
:102AE000A2FB03239B0901335B00019309E0FFF77D
:102AF000CFFF0023236684F85830D5E7019B013BC4
:102B00000193019B002BF9D12268936813F0805F39
:102B10002ED1E36D43F01003E365236E43F0010310
:102B200023660120936813F0040300D00123E16DB4
:102B300011F0100F40F0D180002B40F0CE80E36DFB
:102B400023F4817343F00203E365936813F0010FEC
:102B50002FD1B2F1A04F0DD0664B9A420AD0664BEE
:102B60009B6813F0010300D0012383F0010312E0FE
:102B70000020D7E74FF0A0439B6813F0010300D07B
:102B800001235C49896811F0010100D001210B4348
:102B90000CBF0123002363B1B2F1A04F6CD0554BA1
:102BA0009A4267D0554963688A6822F47C121343BD
:102BB0008B60627FE36B43EA4233E2681343A268AF
:102BC000134394F8242043EA0243012A56D0E26AD0
:102BD00022B102F47872216B0A4313432168CD6855
:102BE000474A2A401343CB602268136923F04063AD
:102BF000616B0B4313612268936813F0080300D0E4
:102C0000012343BB217F94F838305B0043EA8131D4
:102C1000D36823F4804323F002030B43D36023697A
:102C2000002B30D02268136943F48033136122688B
:102C3000D2F8C03023F47F5323F03F0321690B43C4
:102C4000C2F8C03094F84030012B2BD022681369B1
:102C500023F0010313616369012B35D02268136BE4
:102C600023F00F031363E36D23F0030343F0010329
:102C7000E36537E0234996E7224994E7A26A013ADF
:102C800043EA4243A3E72268136923F480331361C4
:102C90002268D2F8C03023F47F5323F03F03C2F8F8
:102CA000C030CFE721680B6923F4FF6323F00403EE
:102CB000626CA56C2A43E56C2A43256D2A431343B5
:102CC00043F001030B61C6E721680B6B23F00F0390
:102CD000226A013A13430B63C5E7E36D43F0100327
:102CE000E365012003B030BD0120FBE708000020B0
:102CF000632D3E0500010050000400500007005005
:102D00000740F0FF000300502DE9F04104460E4655
:102D10000368B3F1A04F1ED0474A934218D0474AE8
:102D2000976807F01F07A569082D1BD0AFB1052FC5
:102D300013D0092F11D0B3F1A04F3AD03E4A93429D
:102D400035D03E4B9B6813F4604F34D1042509E025
:102D500002F50072E4E73A4AE2E7DB6813F0010F9C
:102D60001FD10425FEF744FB804623681A682A42D7
:102D700027D1B6F1FF3FF8D0FEF73AFBA0EB0800F1
:102D8000B04201D8002EF0D123681B682B42ECD151
:102D9000E36D43F00403E365002384F85830032017
:102DA00046E0E36D43F02003E365012040E0244B5F
:102DB000C8E7234BC6E7E36D43F02003E36501203A
:102DC00036E0E26D42F40072E265DA6812F4406FB8
:102DD00011D1627F7AB91A6812F0080F0BD0E26D38
:102DE00022F48072E265E26D12F4805F03D1E26D3D
:102DF00042F00102E265104A934209D01A4693421A
:102E000009D047B1052F06D0092F04D0D26803E0BE
:102E10004FF0A042F3E7DA68082D06D012F4804F95
:102E200008D10C221A60002002E008221A6000205B
:102E3000BDE8F0810020FBE70001005000070050D2
:102E4000000300500368186C70470000F0B583B0B1
:102E50000022019290F85820012A00F07282034665
:102E6000012280F858200568A86810F0040F09D0E6
:102E7000DA6D42F02002DA650120002283F8582042
:102E800003B0F0BD4C683035220A920002F00C020B
:102E9000A85804F01F0E1F2404FA0EF420EA0400C0
:102EA0000C68C4F3846C0CFA0EFC40EA0C00A850C9
:102EB0001868826812F0040200D00122846814F0BD
:102EC000080400D00124002A50D1002C4ED18D6876
:102ED000B5F1004F00F08B800F6814307A0E92002D
:102EE00002F004028658C7F3045E4FF0070C0CFA98
:102EF0000EFC26EA0C0C05FA0EF54CEA0505855089
:102F00001868426922F0004242614D691868C2683F
:102F1000C2F3C102520005FA02F20E69042E7ED0FD
:102F2000603050F82670AD4D3D400F6807F0F8470F
:102F30003A43154345F0004540F826501A680E699B
:102F40008869603252F8265025F08075284342F88F
:102F500026001A680D69087F01285DD0603252F89A
:102F6000250020F00070044342F82540186882686C
:102F700012F0010F17D10A68CD68D0F8B040C2F343
:102F8000120C24EA0C0405F0180C954D25FA0CF5EA
:102F90002A40C2F312022243C0F8B020C868914A06
:102FA000904200F0A4800A688F490A4200F0C38171
:102FB0001968B1F1A04F00F06E818C48814200F099
:102FC00067818B48806800F0E0758A4CA24200F06F
:102FD0006481894CA24200F06081884CA24200F0DA
:102FE0008281874CA24200F09181002045E70D6864
:102FF00014306A0E920002F004028658C5F304559C
:10300000072707FA05F526EA05058550186842697D
:1030100042F00042426178E74FF000749EE7026E92
:10302000046EC4F384640A68C2F3120585BBC2F35C
:103030008462944234D01C68626E606EC0F3846017
:103040000A68C2F3120585BBC2F38462904234D091
:103050001C68A26EA06EC0F384600A68C2F31205F9
:1030600085BBC2F38462904234D01C68E26EE06E8D
:10307000C0F384600A68C2F3120585BBC2F38462A0
:1030800090427FF473AFE26E22F00042E2666DE799
:1030900092FAA2F212B1B2FA82F2CAE72022C8E78B
:1030A000026E22F000420266C5E792FAA2F212B165
:1030B000B2FA82F2CAE72022C8E7626E22F000422A
:1030C0006266C5E792FAA2F212B1B2FA82F2CAE7D8
:1030D0002022C8E7A26E22F00042A266C5E792FA5B
:1030E000A2F212B1B2FA82F2CAE72022C8E71C6843
:1030F0000A68C2F31205002D38D1900E013000F09D
:103100001F0009288CBF0020012000287AD0002D44
:103110003BD1900E0130800600F0F840002D40D1E8
:10312000960E013606F01F070126BE403043002DE3
:1031300045D1920E013202F01F0202EB420212054B
:103140000243886804F11406550EAD0005F004052D
:103150007459C2F304524FF0070C0CFA02FC24EA33
:103160000C0C90404CEA000070511CE792FAA2F05F
:1031700048B1B0FA80F0013000F01F0009288CBF80
:1031800000200120C1E72020F5E792FAA2F030B13B
:10319000B0FA80F00130800600F0F840BEE7202051
:1031A000F8E792FAA2F646B1B6FA86F6013606F0CC
:1031B0001F06012707FA06F6B8E72026F6E792FA77
:1031C000A2F242B1B2FA82F2013202F01F0202EB25
:1031D00042021205B4E72022F6E700BF00F0FF0329
:1031E000FFFF070000007F40000008800001005042
:1031F00000070050000021C31000C090000052C71B
:10320000000084CBCDB9900E0130800600F0F8406C
:10321000FDB9960E013606F01F070126BE40304369
:103220002DBB920E013202F01F0202EB42021E3A47
:10323000120542F00072024383E792FAA2F030B125
:10324000B0FA80F00130800600F0F840E0E720207E
:10325000F8E792FAA2F646B1B6FA86F6013606F01B
:103260001F06012707FA06F6D9E72026F6E792FAA5
:10327000A2F25AB1B2FA82F2013202F01F0202EB5C
:1032800042021E3A120542F00072D4E72022F3E710
:1032900000F5007096E62C4894E610F4000F7FF4D9
:1032A0009CAEB1F1A04F01D00020E6E545F4000549
:1032B00001F540718A6822F0E07215438D60234A5F
:1032C000126892092249A1FB02129209013202EB13
:1032D000420292000192019A1AB1019A013A0192B6
:1032E000F9E70020C9E510F0807F7FF47AAEB1F1F4
:1032F000A04F01D00020C0E545F0807212488168DF
:1033000021F0E0710A4382600020B6E510F4800FDE
:1033100013D1104A914212D0B1F1A04F09D00E48FA
:1033200045F48002816821F0E0710A438260002048
:10333000A3E50548F4E700209FE500209DE5002077
:103340009BE502209CE500BF000300500800002020
:10335000632D3E05000100500007005030B583B0DA
:103360000023019303689A6812F0010F63D10446A9
:103370009968324A114220D19A6822F0004222F024
:103380003F0242F001029A600368B3F1A04F20D0DF
:103390002B4A93421BD02B4B9B6813F4000F20D079
:1033A000294B1B689B09294AA2FB03239B09013374
:1033B00003EB43039B00019310E0C36D43F0100344
:1033C000C365036E43F001030366012034E0204B24
:1033D000E2E71F4BE0E7019B013B0193019B002BC0
:1033E000F9D1FEF705F8054623681A6812F0010FB7
:1033F0001FD19A6812F0010F07D19A6822F000429B
:1034000022F03F0242F001029A60FDF7F1FF431BF8
:10341000022BE9D923681B6813F0010FE4D1E36D97
:1034200043F01003E365236E43F00103236601209C
:1034300002E0002000E0002003B030BD3F0000802B
:10344000000100500007005008000020632D3E05D9
:103450000003005038B504460368B3F1A04F55D0BF
:103460003D4A93424FD03D4A956805F01F059B6841
:1034700013F0040F6CD194F85830012B6AD001235B
:1034800084F858302046FFF769FF00285CD1E36DCF
:1034900023F4706323F0010343F48073E36523682E
:1034A0002D4A934234D01A46934200D01DB9E26DA2
:1034B00022F48012E265E26D12F4805F2BD0226E5E
:1034C00022F0060222661C221A60002384F858307B
:1034D0002268214B9A4221D013469A4221D005B34B
:1034E000052D1ED0092D1CD0E26D42F48012E2653C
:1034F000DB6813F0007F2CD0E36D23F4405343F4DA
:103500008053E36525E002F50072ADE7144AABE7AE
:103510004FF0A042C8E700222266D4E74FF0A04354
:10352000DBE7D36813F0007F05D0E36D23F440534D
:1035300043F48053E365936823F0004323F03F0393
:1035400043F00403936004E0002384F8583000E063
:10355000022038BD0220FCE70001005000070050A7
:103560000003005038B504460268936813F0020364
:1035700000D00123916811F0010F39D0002B39D10F
:10358000936803F00D03012B09D0E36D43F01003A2
:10359000E365236E43F001032366012029E093686D
:1035A00023F0004323F03F0343F0020393602368BA
:1035B00003221A60FDF71CFF054623689B6813F081
:1035C000010F13D0FDF714FF401B0228F5D9236823
:1035D0009B6813F0010FF0D0E36D43F01003E36537
:1035E000236E43F001032366012002E0002000E087
:1035F000002038BD0020FCE730B583B000230193E4
:1036000090F85830012B41D004460D46012380F834
:103610005830FFF7A7FF80BBE36D23F4885323F0F6
:10362000020343F00203E3652268936823F04043FA
:1036300023F03F0305F080452B4343F000439360A4
:1036400023689B68002B06DBE36D23F0030343F044
:103650000103E36515E0019B01330193019A0C4BD3
:103660009A42EDD9E36D23F0120343F01003E365B2
:10367000002384F85830012006E0E36D43F0100386
:10368000E365002384F8583003B030BD0220FBE727
:1036900001DE0400026852E8003F23F4907342E820
:1036A00000310029F6D1026802F1080353E8003F17
:1036B00023F0805323F00103083242E8003100294F
:1036C000F1D1C36E012B06D02023C0F88C3000232B
:1036D000C36643677047026852E8003F23F0100357
:1036E00042E800310029F6D1EEE7704770B5044694
:1036F000016883680269134342691343C269134333
:103700000868964A024013430B602268536823F40A
:103710004053E1680B435360A1692268904B9A4281
:1037200001D0236A1943936823F06E4323F4306376
:103730000B4393602268D36A23F00F03616A0B4343
:10374000D3622368874A934210D0874A934221D09C
:10375000864A934237D0864A93425CD0854A934248
:103760006BD07F4A93427DD010223AE002F5584256
:10377000D2F8882002F00302032A09D8DFE802F019
:103780000204870601222CE004222AE0082228E015
:10379000102226E002F5E632D2F8882002F00C0270
:1037A0000C2A0ED8DFE802F0070D0D0D090D0D0DE6
:1037B000750D0D0D0B00002213E0042211E008220C
:1037C0000FE010220DE002F5E432D2F8882002F07A
:1037D0003002202A5FD01AD8002A5ED0102A5ED18B
:1037E00004225F498B4276D0E069B0F5004F00F0CB
:1037F000C980082A00F23481DFE812F0F7001901CD
:10380000F50032011C013201320132011F01302A60
:1038100047D10822E5E702F5E232D2F8882002F02B
:10382000C002802A3FD004D8FAB3402A3FD10422F4
:10383000D7E7C02A3DD10822D3E702F5E032D2F81B
:10384000882002F44072B2F5007F34D005D8A2B3CC
:10385000B2F5807F33D10422C3E7B2F5407F30D187
:103860000822BEE702F5C832D2F8882002F440628E
:10387000B2F5006F27D005D83AB3B2F5806F26D1E4
:103880000422AEE7B2F5406F23D10822A9E7022255
:10389000A7E70222A5E70222A3E70022A1E7102260
:1038A0009FE710229DE702229BE7002299E7102262
:1038B00097E7102295E7022293E7002291E7102272
:1038C0008FE710228DE702228BE7002289E7102282
:1038D00087E7102285E7082A00F2B280DFE802F0CD
:1038E00008B03BB038B0B0B005004FF4004004E081
:1038F000FEF77CF9002800F0A580626A1E4B33F8C1
:103900001220B0FBF2F3656805EB4501994200F225
:103910009B80B3EB053F00F2998000263346314689
:10392000FDF74AF9090241EA106100026B08C0186C
:103930002A46334641F10001FDF73EF9A0F54072F9
:103940000E4B9A4200F284802368D860304665E0CE
:10395000FEF706F8CEE70A48CFE700BFF369FFCFCE
:103960000080004000380140004400400048004012
:10397000004C0040005000409C6D0008FFFC0F0010
:103980000024F400082A65D8DFE802F00727056460
:103990002A6464640B00354803E0FEF727F9002829
:1039A0005AD0626A324B33F81230B0FBF3F06268DF
:1039B000530803EB4000B0FBF2F0A0F110024FF609
:1039C000EF739A424AD883B223F00F03C0F3420048
:1039D00018432368D860002020E0FEF719F9DEE7DD
:1039E000FDF7BEFFDBE7214803E0FEF7FFF8002804
:1039F00038D0626A1E4B33F81230B0FBF3F06368C4
:103A000000EB5300B0FBF3F0A0F110024FF6EF73A0
:103A10009A4229D8236880B2D86000200123A4F8F4
:103A20006A30A4F8683000236367A36770BDFEF7AF
:103A3000EFF8DCE7FDF794FFD9E74FF40040D8E753
:103A40000120EBE70020E9E70120E7E70120E5E7B7
:103A50000120E3E70120E1E70020DFE70120DDE7C7
:103A60000120DBE70020D9E70120D7E70024F4009C
:103A70009C6D0008836A13F0080F06D00268536833
:103A800023F40043816B0B435360836A13F0010FEF
:103A900006D00268536823F40033C16A0B435360B5
:103AA000836A13F0020F06D00268536823F4803350
:103AB000016B0B435360836A13F0040F06D0026856
:103AC000536823F48023416B0B435360836A13F0E4
:103AD000100F06D00268936823F48053C16B0B4328
:103AE0009360836A13F0200F06D00268936823F472
:103AF0000053016C0B439360836A13F0400F0AD0AC
:103B00000268536823F48013416C0B435360436C89
:103B1000B3F5801F0BD0836A13F0800F06D00268C4
:103B2000536823F40023C16C0B4353607047026851
:103B3000536823F4C003816C0B435360EBE72DE91A
:103B4000F84305460E4617469946DDF820802C6856
:103B5000E46936EA04030CBF4FF0010C4FF0000C8F
:103B6000BC4536D1B8F1FF3FF1D0FDF741FCA0EBE9
:103B70000900404530D8B8F1000F2FD02B681A68E3
:103B800012F0040FE3D0802EE1D0402EDFD0DA69AE
:103B900012F0080F11D1DA6912F4006FD7D04FF488
:103BA00000621A622846FFF775FD2023C5F89030A1
:103BB000002385F8843003200CE008241C6228468A
:103BC000FFF768FDC5F89040002385F88430012098
:103BD00000E00020BDE8F8830320FBE70320F9E7BD
:103BE0002DE9F04182B01E46D0F88830202B60D1FC
:103BF00004460D46904600295FD00AB9012059E0DD
:103C00000023C0F890302123C0F88830FDF7F0FB86
:103C10000746A4F85480A4F85680A368B3F5805FE3
:103C200002D04FF000081CE0236973B34FF0000886
:103C300017E02023C4F8883003203BE038F8023B2B
:103C40002268C3F308039362D4F8883003F0210399
:103C5000212B34D1B4F8562092B2013A92B2A4F892
:103C60005620B4F856309BB293B100963B460022E2
:103C700080212046FFF763FF0028DAD1002DDDD038
:103C800015F8012B23689A62DEE7A8460025E8E7CD
:103C900000963B46002240212046FFF750FF18B90E
:103CA0002023C4F8883005E02023C4F8883003209E
:103CB00000E0022002B0BDE8F0810120FAE7012017
:103CC000F8E730B583B004460023C0F89030FDF724
:103CD0008FFB05462268126812F0080F10D1236886
:103CE0001B6813F0040F28D12023C4F88830C4F8CF
:103CF0008C300020E066206784F8840003B030BD7B
:103D00006FF07E430093034600224FF400112046DB
:103D1000FFF715FF0028E2D0226852E8003F23F0A9
:103D2000800342E800310029F6D12023C4F888300E
:103D3000002384F884300320E0E76FF07E43009393
:103D40002B4600224FF480012046FFF7F8FE0028A2
:103D5000CAD0226852E8003F23F4907342E8003151
:103D60000029F6D1226802F1080353E8003F23F04E
:103D70000103083242E800310029F3D12023C4F8BE
:103D80008C30002384F884300320B7E778B310B573
:103D90000446D0F888300BB32423C4F88830226856
:103DA000136823F001031360A36AE3B92046FFF709
:103DB0009DFC012811D02268536823F4904353607E
:103DC0002268936823F02A0393602268136843F003
:103DD000010313602046FFF774FF10BD80F88430A4
:103DE000FFF783FCD8E72046FFF744FEDEE701201B
:103DF000704700000D488546FEF728FA0C480D492B
:103E00000D4A002302E0D458C4500433C4188C4235
:103E1000F9D30A4A0A4C002301E013600432A2429B
:103E2000FBD300F017F8FDF77BF8FEE700C0012098
:103E300000000020DC010020DC710008DC01002013
:103E400040030020FEE70000014B1868704700BFE8
:103E50000C00002070B50D4D0D4C641BA410002605
:103E6000A64209D10B4D0C4C02F016FF641BA410A6
:103E70000026A64205D170BD55F8043B984701368F
:103E8000EEE755F8043B98470136F2E7DC7100088D
:103E9000DC7100080000000000000000024403463E
:103EA000934200D1704703F8011BF9E72DE9FF4762
:103EB00055EC104B002D0E4619462B46BBBF05F1A5
:103EC00000431D4600232D230B700D9BDDF830A011
:103ED000914623F02008BCBF22461446B8F1460F95
:103EE00005D0B8F1450F00D10136022100E00321D1
:103EF00003AB019302AB009345EC104B53463246A3
:103F000000F0FEFCB8F1470F074602D119F0010F8F
:103F100022D0B8F1460F07EB060910D13B78302BC1
:103F20000AD10022002320462946FCF7D5FD18B906
:103F3000C6F10106CAF80060DAF8003099440022A0
:103F4000002320462946FCF7C7FD08B1CDF80C90A8
:103F50003022039B4B4507D3039B0E9ADB1B38464D
:103F6000136004B0BDE8F087591C03911A70F0E7A4
:103F7000F7B503460029B8BF494203F8022BB4BF86
:103F80002D222B22092942702ADD0DF10704A446B7
:103F90000A27A6460A4691FBF7F607FB16153035A9
:103FA000632A04F1FF340EF8015C3146F1DC303154
:103FB000AEF1020504F8011C441C294661450AD3F0
:103FC0000DF10902A2EB0E02654588BF00221344E1
:103FD000181A03B0F0BD11F8012B04F8012FEDE71A
:103FE000302330318370C170031DF1E72DE9F04FAC
:103FF0002DED028B8DB00C46DDF8608016461F4615
:10400000054601F06BFAD0F800A05046FCF7E8F83E
:1040100000230A9323680593D8F8003094F818B069
:10402000073323F0070303F10802C8F80020D3E99F
:104030000023C4E91223D4E9128929F0004307932D
:10404000CDF8188008EE100A9F4BDDE906014FF00D
:10405000FF32FCF773FD88BBDDE906019A4B4FF098
:10406000FF32FCF74DFD48BB002200234046494685
:10407000FCF73CFD10B12D2384F84330934B94485A
:10408000BBF1470F94BF9846804603232361059BED
:1040900023F0040222604FF00009009733460BAA78
:1040A0002146284600F0D8F9013040F090804FF0CA
:1040B000FF300DB0BDEC028BBDE8F08F42464B46A1
:1040C00040464946FCF73AFD40B14B46002BBCBF89
:1040D0002D2384F843307F487F4BD1E763680BF092
:1040E000DF0206925A1C3FD106236360059B61687C
:1040F00043F48062002303930AABCDE901B309AB1B
:1041000049EC108B009322600DF123032846FFF742
:10411000CDFE069B0999472B804608D1C81C02DBBF
:104120006368994241DDABF1020B5FFA8BFBBBF197
:10413000650F20D801395A4604F150000991FFF764
:1041400017FF0A9A1318012A8146236102DC2268AC
:10415000D20701D5013323619DF82330002B9CD079
:104160002D2384F8433098E7069A472ABED1002BC6
:10417000BCD10123B9E7BBF1660F18D100296368F0
:104180000BDD216113B92268D00702D501330B443E
:104190002361A1654FF00009DEE713B92268D20759
:1041A00001D50233F4E70123F2E74FF0670B0A9BD6
:1041B000994205DB23682161D807EAD54B1CE7E764
:1041C0000029D4BFC1F1020201221344E0E72368B1
:1041D0005A0507D42369424631462846B84701307C
:1041E0002CD164E7BBF1650F40F2E080D4E9120105
:1041F00000220023FCF770FC002834D0374A01234A
:1042000031462846B84701303FF451AFDDE9092374
:104210009A4202DB2368D80710D518EE103A5246AE
:1042200031462846B84701303FF441AF4FF000080F
:1042300004F11A090A9B013B434509DC23689B07EB
:1042400000F10581E0680B9B9842B8BF184630E743
:1042500001234A4631462846B84701303FF427AF8C
:1042600008F10108E6E7099B002B39DC1B4A012312
:1042700031462846B84701303FF419AFDDE909233C
:10428000134302D12368D907D8D518EE103A524605
:1042900031462846B84701303FF409AF4FF00009D6
:1042A00004F11A0A099B5B424B4501DC0A9B92E729
:1042B0000123524631462846B84701303FF4F7AE55
:1042C00009F10109EEE700BFFFFFEF7FB86D0008BD
:1042D000BC6D0008C46D0008C06D0008C86D000802
:1042E0000A9AA36D9A42A8BF1A46002A914637DC63
:1042F0004FF0000B29EAE97904F11A02A36D059346
:10430000A3EB09035B4533DCDDE909239A423BDB80
:104310002368DA0738D40A9B059A09999A1AA3EBFD
:1043200001099145A8BF9146B9F1000F35DC4FF066
:10433000000829EAE97904F11A0ADDE909239B1A40
:10434000A3EB090343457FF779AF0123524631467A
:104350002846B84701303FF4AAAE08F10108ECE75F
:104360001346314642462846B8470130C0D19EE642
:104370000123314628460592B84701303FF497AEF5
:10438000059A0BF1010BB9E718EE103A5246314687
:104390002846B8470130BED189E6059A4B464244CB
:1043A00031462846B8470130C1D180E60A9A012A31
:1043B00001DCDB0738D50123424631462846B847A1
:1043C00001303FF474AE18EE103A5246314628469A
:1043D000B84701303FF46BAED4E91201002200234C
:1043E000FCF77AFBD8B90A9B08F10102013B314680
:1043F0002846B84701300ED159E6012352463146CE
:104400002846B84701303FF452AE08F101080A9B34
:10441000013B4345F1DC4B4604F15002DCE64FF032
:10442000000804F11A0AF2E701234246DFE70123FC
:104430004A4631462846B84701303FF438AE08F1C5
:104440000108E3680B995B1A4345F0DCFAE64FF08C
:10445000000804F11909F4E72DE9F04716469946DA
:104460008A680B69DDF820809342B8BF1346336039
:1044700091F8432007460C460AB1013333602368A4
:10448000990642BF336802333360256815F006058C
:1044900006D104F1190AE36832689B1AAB4226DCA4
:1044A00094F84320131E226818BF012392062BD4D0
:1044B00004F1430249463846C04701301ED0236804
:1044C000E568326803F00603042B08BFAD1AA36841
:1044D00022690CBF25EAE57500259342C4BF9B1AEB
:1044E000ED1800261A34B5421AD1002008E0012345
:1044F000524649463846C047013003D14FF0FF309D
:10450000BDE8F0870135C6E7E1185A1C302081F874
:104510004300224494F8451082F843100233C7E761
:104520000123224649463846C0470130E6D00136CD
:10453000D9E700002DE9FF470F7E0C9D782F9146AB
:1045400080460C469A4601F1430207D8622F0AD8EA
:10455000002F00F0D880582F00F0A38004F142050E
:1045600084F842703AE0A7F16303152BF6D801A155
:1045700051F823F0CD450008E14500085D450008ED
:104580005D4500085D4500085D450008E1450008FF
:104590005D4500085D4500085D4500085D45000873
:1045A000ED46000811460008CF4600085D450008AA
:1045B0005D4500080F4700085D45000811460008EA
:1045C0005D4500085D450008D74600082B681A1DA8
:1045D0001B682A6004F1420584F842300123A3E0FD
:1045E00020682968060601F104030AD50E682B60CD
:1045F000002E03DA2D23764284F843305E480A23E6
:1046000019E00E682B6010F0400F18BF36B2EFE7CC
:104610002B682068191D2960010601D51E6802E07B
:104620004606FBD51E8854486F2F0CBF08230A236B
:10463000002184F843106568A560002DA2BF2168A1
:1046400021F0040121600EB9002D4DD01546B6FBB6
:10465000F3F103FB1167C75D05F8017D3746BB42E7
:104660000E46F4D9082B0BD12368DE0708D5236941
:1046700061689942DEBF302305F8013C05F1FF3542
:10468000521B2261CDF800A04B4603AA21464046AA
:10469000FFF7E2FE01304CD14FF0FF3004B0BDE82F
:1046A000F087354881F845702968236851F8046B14
:1046B00029601D0614D5DF0744BF43F020032360A3
:1046C0001EB9236823F0200323601023B0E723687A
:1046D00043F0200323607823284884F84530E3E73B
:1046E000590648BFB6B2E6E71546BBE72B68266811
:1046F0006169181D286035061B6801D5196002E044
:104700007006FBD51980002323611546BAE72B6894
:104710001A1D2A601D68626800212846FBF768FDA3
:1047200008B1401B606063682361002384F8433054
:10473000A8E723692A4649464046D0470130ABD016
:1047400023689B0713D4E068039B9842B8BF1846C0
:10475000A4E70123324649464046D04701309BD06A
:104760000135E36803995B1AAB42F2DCEBE7002505
:1047700004F11906F5E700BFCA6D0008DB6D0008FB
:104780000CB430B5174B0C1E1D689DB008DA8B2396
:104790002B604FF0FF301DB0BDE8304002B07047D5
:1047A0004FF40273ADF8143014BF04F1FF33234605
:1047B000049307934FF6FF7302900690ADF81630FE
:1047C000209A21AB02A92846019301F077FB431CF4
:1047D000BCBF8B232B60002CDDD0029B00221A7003
:1047E000D9E700BF0C0000202DE9F74F03690C69E1
:1047F000A3420746C0F28180013C01F1140800F198
:10480000140505EB8403019358F8243055F824204F
:1048100001339A424FEA840B08EB8409B2FBF3F6AA
:1048200031D34FF0000E4046AC46F24650F8042B10
:1048300093B206FB03E34FEA134E9BB2AAEB0303CA
:10484000DCF800A0120C13FA8AF306FB02E20093D4
:10485000009B4FEA124E92B2C2EB1A4202EB234285
:10486000BDF80030814543EA02434CF8043B4FEA6F
:10487000224ADBD255F80B302BB9019B043B9D42F9
:104880001A462ED33C61384601F0C4F8002824DBD8
:10489000013628464FF0000C58F8042BD0F800E001
:1048A00093B2ACEB0303120C13FA8EF3C2EB1E426D
:1048B00002EB23429BB243EA0243C14540F8043B6A
:1048C0004FEA224CE8D255F8242005EB840322B9A4
:1048D000043B9D421A460AD33C61304603B0BDE812
:1048E000F08F1268043B002ACCD1013CC7E7126864
:1048F000043B002AF0D1013CEBE70020EEE700008A
:104900002DE9F04F2DED048B57EC106B93B0456AF9
:10491000DDF88080069110EE10AA044609920C93EF
:10492000BB4675B9102000F0DDFD0246606220B97B
:10493000A74BEA21A74801F0D1FBC0E9015505606A
:10494000C560636A196851B15A684A60012393408F
:104950008B60204600F01CFE636A00221A603B1E3A
:10496000AABF002323F0004BC8F800309A4BBCBF0D
:104970000122C8F8002033EA0B031BD10C9A42F243
:104980000F731360CBF31303334300F09285219B25
:1049900063B9924B22E0924B01930833219A136042
:1049A000019813B0BDEC048BBDE8F08F8B4B0193E5
:1049B0000333F3E70022002350465946FCF78CF8F6
:1049C0004BEC19AB804658B10C9A01231360219B24
:1049D000002B00F06B8583481860431E0193DFE7CE
:1049E0004BEC10AB10AA11A9204601F0B9F8CBF39B
:1049F0000A5508EE100A002D00F0848019EE903A56
:104A0000C3F3130343F07F57564647F44017A5F20C
:104A1000FF35CDF83880744B002230463946FBF71D
:104A20003BFC65A3D3E90023FBF7EEFD64A3D3E9C8
:104A30000023FBF733FC064628460F46FBF77AFDBA
:104A400061A3D3E90023FBF7DFFD02460B463046A6
:104A50003946FBF723FC06460F46FCF785F8002293
:104A60000090002330463946FCF740F850B10098DA
:104A7000FBF760FD32463B46FCF72EF810B9009B71
:104A8000013B0093009B162B5AD8009A574B03EB1F
:104A9000C203D3E9002351EC190BFCF727F80028D7
:104AA00050D0009B013B009300230B93109B5D1B98
:104AB0006B1E059345BFC5F101030493002300233A
:104AC0004CBF05930493009B002B3DDB059B009A94
:104AD0000A921344059300230793069B092B00F2C7
:104AE0008980052BC4BF043B0693069BA3F10203F8
:104AF000CCBF00250125032B00F28780DFE803F0FF
:104B00002D3A3859DDE910531D4405F23243202B6C
:104B1000C1BFC3F1400305F212400BFA03F326FABA
:104B200000F0DABFC3F1200306FA03F01843FBF7E5
:104B3000F1FC01230646A1F1F877013D0E936AE7E7
:104B40000123B2E70B90B1E7049B009A9B1A0493F0
:104B50005342079300230A93BFE700230893099B5E
:104B6000002B55DC0123CDE902331A4609920CE0F3
:104B70000123F3E70023099A0893009B134402934F
:104B80000133012B0393B8BF0123606A0022426006
:104B9000042202F114069E4241683DD9204600F0ED
:104BA000B7FC019000283BD1114B02464FF4D57160
:104BB000C0E60123DFE700BF61436F63A787D23FF1
:104BC000B3C8608B288AC63FFB799F501344D33FFC
:104BD000F96D0008106E00080000F07FF56D000808
:104BE000EC6D0008C96D00080000F83F486F000830
:104BF0008E6E000801250023069308954FF0FF33C1
:104C0000CDE9023300221223B0E701230893F5E730
:104C1000099BCDE90233B8E7013141605200B8E7A2
:104C2000636A019A1A60039B0E2B00F29D80002D8F
:104C300000F09A80009B002B32DDB74A03F00F038F
:104C400002EBC303D3E90089009BD8054FEA231781
:104C500016D5B24B51EC190BD3E90823FBF7FEFD37
:104C600007F00F0782468B460325AC4E57B94246E4
:104C70004B4650465946FBF7F1FD82468B4628E0ED
:104C80000225F2E7F90708D540464946D6E9002350
:104C9000FBF7BAFC0135804689467F100836E5E708
:104CA00000F09B80009B9D4F5E429B4B06F00F02E5
:104CB00003EBC203D3E9002351EC190BFBF7A4FC6F
:104CC000361182468B4600230225002E7AD1002B16
:104CD000D3D10B9B002B00F08280914B00225046D9
:104CE0005946FBF703FF002879D0039B002B76D0B1
:104CF000029B002B36DD009B504659465F1E00226A
:104D0000884BFBF781FC029E82468B460135284684
:104D1000FBF710FC52465B46FBF776FC824B002209
:104D2000FBF7BCFAD046D9468246A1F1507B002E53
:104D300058D17E4B002240464946FBF7ADFA524619
:104D40005B4680468946FBF7EFFE002840F09582DF
:104D500052460BF1004340464946FBF7C7FE002888
:104D600040F089825BEC19AB119B002BC0F24881AB
:104D7000009A0E2A00F34481674B03EBC203D3E988
:104D80000089099B002B80F2D580039B002B00F348
:104D9000D18040F06F82654B002240464946FBF7C8
:104DA00033FC52465B46FBF7B5FE039E37460028B0
:104DB00040F04582019D312305F8013B009B013302
:104DC000009340E2F20705D5D7E90023FBF71CFC6E
:104DD000013501237610083777E7022579E7009F30
:104DE000039E94E701994C4B31440D91089903EBD4
:104DF000C60353E90223002943D04D490020FBF7A5
:104E00002DFD52465B46FBF747FA019D82468B46D5
:104E100049464046FBF7A8FE0646FBF78BFB0246D9
:104E20000B4640464946FBF737FA303605F8016B2A
:104E300052465B4680468946FBF758FE002863D100
:104E400042464B4636490020FBF726FA52465B465F
:104E5000FBF74CFE002840F0B5800D9B9D4281D0B1
:104E6000304B002250465946FBF7CEFB2D4B824675
:104E70008B46404649460022FBF7C6FB80468946E2
:104E8000C6E750465946FBF7BFFB0D9B019D0F93AC
:104E900082468B4649464046FBF766FE0646FBF7D0
:104EA00049FB303602460B4640464946FBF7F4F9CB
:104EB00005F8016B0D9B9D42804689464FF000022C
:104EC00024D11B4B50465946FBF7E8F902460B46E6
:104ED00040464946FBF728FE002873D152465B4600
:104EE00013490020FBF7D8F902460B4640464946D5
:104EF000FBF7FCFD00283FF435AF0F9D6B1E0F93B1
:104F000015F8013C302BF8D0009749E0054BFBF732
:104F10007BFB80468946BDE7486F0008206F00088C
:104F20000000F03F0000244000001C40000014403E
:104F30000000E03F019D56465F4642464B463046E4
:104F40003946FBF78BFCFBF70FFE8246FBF7F2FAC4
:104F500042464B46FBF758FB02460B463046394665
:104F60000AF13006FBF798F905F8016B019E039FE3
:104F7000AE1BB74202460B4635D1FBF78FF94246CE
:104F80004B4606460F46FBF7CFFDD0B942464B468F
:104F900030463946FBF7A0FD10B11AF0010F10D1D1
:104FA000204618EE101A00F0F3FA002300982B7038
:104FB0000C9B01301860219B002B3FF4F1AC1D606D
:104FC000EEE4009F2B461D4613F8012D392A06D129
:104FD000019A9A42F7D10199302201370A701A7862
:104FE00001321A7090E7A64B0022FBF70DFB00225E
:104FF000002306460F46FBF76FFD00289DD0CFE744
:10500000089A002A00F0D780069A012A00F3BA8095
:105010000E9A002A00F0B28003F23343079E049DEB
:10502000049A1A440492059A01211A4420460592D2
:1050300000F066FB0746002D0CDD059B002B09DD0B
:10504000AB42049AA8BF2B46D21A0492059AED1AD5
:10505000D31A0593079B1BB3089B002B00F0AF806E
:10506000002E13DD39463246204600F009FC18EECA
:10507000102A01460746204600F058FB18EE101A89
:105080008046204600F084FA08EE108A079B9A1B9F
:1050900006D018EE101A204600F0F2FB08EE100AB7
:1050A0000121204600F02CFB0A9B002B064640F312
:1050B00088801A460146204600F0E2FB069B012B41
:1050C000064640F381804FF00008336906EB830306
:1050D000186900F0C5FAC0F12000059B184410F0D3
:1050E0001F0000F09280C0F12003042B40F38A805F
:1050F000C0F11C00049B03440493059B0344054436
:105100000593049B002B07DD18EE101A1A46204663
:1051100000F010FC08EE100A059B002B05DD31465F
:105120001A46204600F006FC06460B9B002B6ED06C
:1051300018EE100A314600F06DFC002867DA009B7B
:10514000013B18EE101A00930A220023204600F0BB
:1051500041FA089B08EE100A002B00F0B1810023F1
:1051600039460A22204600F035FA029B002B0746FA
:1051700000F38E80069B022B51DC89E0109BC3F16B
:1051800036034BE7039B5E1E079BB342BFBF079BE3
:105190000796F21A0A9BB6BF9B189E1B0A93039BA5
:1051A000B8BF0026002BB7BFDDE90323DDE90335D7
:1051B0009D1A002334E7079E049D089F3BE7079A4A
:1051C00067E7069B012B18DCBAF1000F15D1CBF372
:1051D000130393B92BF000431B0D1B0583B1049BF4
:1051E00001330493059B013305934FF001080A9B9B
:1051F000002B7FF46AAF01206FE74FF00008F6E75D
:105200009846F4E73FF47DAF18461C3072E7039BE5
:10521000002B37DC069B022B34DD039B0293029BA1
:105220006BB931460522204600F0D4F90146064606
:1052300018EE100A00F0EEFB00283FF7BBAD099B0B
:10524000019DDB4300934FF000083146204600F0FB
:105250009FF9002F3FF4A4AEB8F1000F05D0B84578
:1052600003D04146204600F093F93946204600F02D
:105270008FF995E600263746E1E70097374699E52E
:1052800000002440089B002B00F0CA80039B02937F
:10529000002D05DD39462A46204600F04BFB074627
:1052A000B8F1000F5BD07968204600F031F905466F
:1052B00028B9874B024640F2EA21FFF73BBB3A6927
:1052C0000232920007F10C010C3000F013F90122B8
:1052D0002946204600F02EFB019B03F10109DDE980
:1052E0000123134405930AF00103B84604930746CB
:1052F000314618EE100AFFF777FA4146029000F1A6
:10530000300A18EE100A00F085FB3A460390314649
:10531000204600F09BFBC26809F1FF3B054602BB3B
:10532000014618EE100A00F075FB02462946204699
:10533000079200F02DF9DDE9063243EA0201049BF1
:105340000B434D460FD1BAF1390F2AD0039B002BE6
:1053500002DD029B03F1310A8BF800A075E73846A5
:10536000BAE70122E2E7039B002B04DB06990B431B
:1053700004990B4322D1002AEEDD18EE101A012207
:10538000204600F0D7FA314608EE100A00F042FB42
:10539000002803DCE0D11AF0010FDDD0BAF1390F9B
:1053A000D7D139238BF800302B461D46013B15F829
:1053B000012C392A71D001321A7046E7002A07DD24
:1053C000BAF1390FEDD00AF101038BF800303CE758
:1053D000059B09F801AC994547D018EE101A002337
:1053E0000A22204600F0F6F8B84508EE100A4FF001
:1053F00000034FF00A024146204606D100F0EAF8C9
:105400008046074609F1010972E700F0E3F83946E2
:10541000804600230A22204600F0DCF80746F1E728
:10542000039B0293019D18EE100A3146FFF7DCF949
:1054300000F1300A019B05F801ABEA1A029B934286
:1054400009DD18EE101A00230A22204600F0C2F8E7
:1054500008EE100AE7E7029B002BC8BF1D46019B20
:10546000D8BF01251D444FF0000818EE101A012284
:10547000204600F05FFA314608EE100A00F0CAFA42
:10548000002891DC02D11AF0010F8DD12B461D4668
:1054900013F8012D302AFAD0D7E6019A9A4284D126
:1054A000009B0133009331231370CEE6094BFFF7C5
:1054B00095BA219B002B7FF46EAA074BFFF78EBA9B
:1054C000029B002BAEDC069B022B3FF7A8AEA9E7A0
:1054D0008E6E0008C86D0008EC6D0008004870472B
:1054E00060010020024B0146186800F017BC00BFA5
:1054F0000C0000200A44914200F1FF3300D17047B4
:1055000010B511F8014B03F8014F9142F9D110BDCC
:1055100070B5466A04460D4676B91020FFF7E2FFE3
:105520000246606220B9184B1848662100F0D6FD8B
:10553000C0E901660660C660666AF36883B1636AA3
:10554000DB6853F82500B8B9012101FA05F6721D90
:105550009200204600F060FB60B1C0E901560EE009
:1055600021220421204600F057FB636AF060DB68CB
:10557000002BE4D1002070BD026843F825200023F1
:10558000C0E90333F7E700BFF96D00089F6E00081C
:1055900070B5466A05460C4676B91020FFF7A2FFA3
:1055A0000246686220B9094B09488A2100F096FD3D
:1055B000C0E901660660C6603CB16B6A6268DB6880
:1055C00053F82210216043F8224070BDF96D0008A5
:1055D0009F6E00082DE9F0410D6907460C461E46F6
:1055E00001F1140C0020DCF8003099B202FB0161DB
:1055F0001E0C0B0C02FB063389B2013001EB034198
:1056000085424CF8041B4FEA1346ECDC0EB3A3684A
:10561000AB4219DC616838460131FFF779FF8046FB
:1056200028B902460C4B0D48B52100F057FD226900
:10563000023204F10C0192000C30FFF75BFF2146AF
:105640003846FFF7A5FF444604EB850301355E614C
:1056500025612046BDE8F0818E6E00089F6E00082F
:10566000030C1B04D3B90004102310F07F4F04BFB8
:105670000002083310F0704F04BF0001043310F033
:10568000404F04BF80000233002805DB10F0804F3C
:1056900003F1010308BF2023184670470023E4E705
:1056A000036813F0070201460BD0DA0723D49807EA
:1056B00049BF5B089B0801200B605CBF0B600220A8
:1056C000704798B2A8B91B0C1020DAB20AB908309A
:1056D0001B0A1A0704BF1B0904309A0704BF9B0862
:1056E0000230DA0703D45B0800F1010005D00B603B
:1056F00070471046E9E700207047202070470000FF
:1057000010B50C460121FFF703FF024628B9054BEF
:1057100005484FF4A07100F0E1FC012344610361EE
:1057200010BD00BF8E6E00089F6E00082DE9F04F7F
:1057300091460A69D9F810309A42B8BF0B460C4618
:10574000BCBF4C4699462769D9F810A0A368616888
:1057500007EB0A06B34285B0B8BF0131FFF7D8FEA8
:1057600030B90246444B454840F25D1100F0B6FCAA
:1057700000F1140505EB86082B460022434521D392
:1057800004F1140303EB870709F1140303EB8A0206
:1057900002923A1B153A22F00302043204F1150179
:1057A0008F4238BF04220192029A03939A420CD886
:1057B000002E03DD58F8043D002B5AD0066105B0D9
:1057C000BDE8F08F43F8042BD8E7B3F800A0BAF196
:1057D000000F24D004F1140EA9464FF0000C5EF81F
:1057E000042BD9F800101FFA82FB89B20AFB0B11B7
:1057F0004FEA124BD9F8002061444FEA124C0AFBE1
:105800000BC202EB114289B241EA0241774549F8E5
:10581000041B4FEA124CE2D8019A45F802C0039AE1
:10582000B2F802900433B9F1000F20D0296804F1D6
:10583000140CAE464FF0000ABCF800B0BEF80220CF
:1058400009FB0B22924489B241EA0A414EF8041B3B
:105850005CF8042BBEF80010120C09FB021101EBDE
:105860001A4167454FEA114AE6D8019AA950043512
:105870009AE7013E9CE700BF8E6E00089F6E00080D
:105880002DE9F843154612F0030206460F4607D0ED
:10589000254C013A002354F82220FFF79BFE0746CF
:1058A000AD103DD0746A7CB91020FFF71BFE024694
:1058B000706228B91D4B1E484FF4D77100F00EFCE2
:1058C000C0E901440460C460D6F82480D8F80840D8
:1058D0004CB940F271213046FFF712FF0023C8F89F
:1058E0000800044603604FF00009EB070AD539466B
:1058F00022463046FFF71AFF394680463046FFF70A
:1059000047FE47466D100BD0206838B92246214625
:105910003046FFF70BFF2060C0F800900446E4E734
:105920003846BDE8F88300BF10700008F96D000824
:105930009F6E00082DE9F0470C464968236903EB88
:105940006218A368074691464FEA621A08F10106F9
:10595000B3420BDB3846FFF7DBFD054648B902468C
:105960002A4B2B4840F2D91100F0B8FB01315B0003
:10597000EEE7002300F1140100F110021846534530
:1059800037DB20692AEAEA7A04F1140319F01F09C7
:1059900001EB8A0103EB80002FD0C9F1200E8A466B
:1059A0004FF0000C1A6802FA09F242EA0C024AF8B7
:1059B000042B53F8042B984222FA0EFCF2D8031B56
:1059C000153B23F00303043304F11502904238BF62
:1059D000042341F803C0BCF1000F01D008F1020616
:1059E000013E38462E612146FFF7D2FD2846BDE82C
:1059F000F08742F8040F0133C1E7043953F8042B50
:105A000041F8042F9842F9D8EAE700BF8E6E0008EB
:105A10009F6E000830B502690C69121B0ED100F1AF
:105A20001403143103EB840001EB840150F8045D8E
:105A300051F8044DA54203D005D30122104630BDD4
:105A40008342F3D3FAE74FF0FF32F7E72DE9F84F3F
:105A50000C460646114620469046FFF7DBFF051E22
:105A600010D129463046FFF753FD30B93A4B024674
:105A700040F23221394800F031FB0123C0E90435FE
:105A8000BDE8F88FA4BF4346A0463046D8F80410BE
:105A9000A6BF1C4600250125FFF73AFD20B92E4B75
:105AA00002464FF41071E5E7D8F810702669C5601A
:105AB00004F1140908F1140500F1140E05EB870C2C
:105AC00009EB860608F11002F246002159F8043B62
:105AD00052F804BF1FFA83F811FA8BF11B0CA1EBEB
